:020000040000fa
:10000000f07f0020b91700002f1100002f12000010
:1000100000000000000000000000000000000000e0
:10002000000000000000000000000000e31c0000d1
:10003000000000000000000051180000091c000032
:10004000830f0000830f0000830f0000830f000068
:10005000830f0000830f0000830f0000830f000058
:10006000830f0000830f0000830f0000830f000048
:10007000830f00005d060000830f0000830f000067
:10008000830f0000830f0000830f0000830f000028
:10009000830f0000830f0000830f0000830f000018
:1000a000830f0000830f0000830f0000830f000008
:0c00b000830f0000830f0000830f00008e
:020000040000fa
:1000bc00f8b5c046f8bc08bc9e4670475117000006
:1000cc00f8b5c046f8bc08bc9e467047291700001e
:020000040000fa
:0800dc00900a00000100000081
:020000040000fa
:1000e400f0b5de46474680b583b000900e0001931c
:1000f4009500280000f08eff071e00d1d2e05420a6
:1001040000f088ff041e60d007632a00a521380090
:1001140001f09cfe236b9846002e5cd03378342289
:10012400a354002b09d0012322003432f15cd154b2
:10013400002902d00133102bf8d143230022e254ca
:100144000a9b9b46042b01d904239b465b46e3622e
:1001540063640026a664271d380001f0dbfe20003e
:10016400183001f0d7fe246105235a469b1aa36177
:10017400646223004c331e705e709e70de70043324
:100184001e70281f404407239843019a009901f0e8
:100194006bfd20600b9b002b00d01c6001f0c4fda4
:1001a400444a136801331360434b1b68002b16d079
:1001b400424b1b68002b17d13f4b1b68db6ae26a7a
:1001c400934211d83c4b1c600ee0380001f061fcf6
:1001d4000120404268e034230022e254b0e7364b69
:1001e4001c601368012b33d0354a13680133136044
:1001f400e26a344b1b689a4201d9324b1a60324985
:1002040093009b189b00cb185b68a3609a68e2601c
:1002140057609f60e06a83001a1892008a1862612e
:100224001a189200525801321b189b005a5001f0c0
:10023400c1fd224b1b680120002b35d01e4b1b68cf
:10024400da6ae36a9a422fd201f062fd01202be0c0
:100254001d4d280001f098fd2800143001f094fd94
:100264002800283001f090fd28003c3001f08cfd7e
:100274002800503001f088fd144e300001f084fd58
:10028400134d280001f080fd124801f07dfd124855
:1002940001f07afd114801f077fd114b1e60114bfe
:1002a4001d60a1e70120404203b00cbc90469b4670
:1002b400f0bdc046d4110020c8110020f811002060
:1002c400e0110020e4110020001000205011002053
:1002d4006411002078110020a01100208c1100204e
:0802e400cc110020d011002014
:020000040000fa
:1002ec00341100201c00000000000000b41100209c
:1002fc001000000000000000c411002004000000e9
:10030c0000000000c81100200400000000000000e4
:10031c00cc1100200400000000000000d0110020cf
:10032c000400000000000000001000206400000029
:10033c0000000000d41100200400000000000000a8
:10034c00d81100200400000000000000dc11002087
:10035c000400000000000000e01100200400000078
:10036c0000000000e4110020040000000000000068
:10037c005011002014000000000000006411002047
:10038c001400000000000000e81100200400000030
:10039c0000000000ec110020040000000000000030
:1003ac00f01100200400000000000000f4110020f7
:1003bc000400000000000000781100201400000070
:1003cc0000000000f81100200400000000000000f4
:1003dc008c1100201400000000000000a01100206f
:1003ec001400000000000000fc11002004000000bc
:1003fc0000000000001200200400000000000000bb
:10040c002412002004000000010000000400000081
:10041c000412002004000000000000000000002076
:10042c000010000000000000081200200400000072
:10043c000000000028120020040000000100000051
:10044c00aaaaaaaa0c1200200400000000000000b6
:10045c0010120020040000000000000020120020f8
:10046c00010000000000000064100020500000009b
:10047c00000000000411002030000000000000000b
:10048c001c120020010000000000000014120020cb
:10049c000400000000000000b41000205000000018
:1004ac0000000000181200200400000000000000f2
:1004bc000000000000000000444444444444444410
:020000040000fa
:1004cc00f0b5d6464f464646c0b582b0554b1b6874
:1004dc00002b00d098e0544b1c6801341c60002c9d
:1004ec0019d0524b1b68a34222d900230193504bc5
:1004fc001b68da6a93009b189b004e4a9b58012b91
:10050c0001d9012301934c4b1b68002b00d181e0d6
:10051c00012301937ee0494a1168494b1868106029
:10052c001960484a13680133136001f0dbfad8e70d
:10053c0000230193414eb24600239946424b984604
:10054c003c493b4b9c4637e0384b012252421a60e7
:10055c00cde7364b1a60cae7dd68556041e01d6a8d
:10056c0055604d469d621568013d1560dd6a424639
:10057c001268954201d9344a1560aa0052199200aa
:10058c008a1852689a609568dd6068609060dd6ad0
:10059c00aa00501980000818586150198000405862
:1005ac00013052199200505062461068da6ac36ae0
:1005bc009a4201d30123019333681b68002bc3d0eb
:1005cc0053461b68db68db685a689442c1d35a698e
:1005dc009d68d868a8609d684560181d556885425f
:1005ec00bad04d465d611568013d15609a6a002ac6
:1005fc00bcd01d6adf69bd60df696f601d001835f6
:10060c005768af42add1aae7104a136801331360a3
:10061c0000230193019802b01cbc90469946a24657
:10062c00f0bdc046dc110020fc110020ec110020b4
:10063c00c81100200010002000120020cc11002056
:10064c00d0110020f0110020e4110020f411002042
:020000040000fa
:10065c00f0b5c64600b5574b9b7d002b17d0554abd
:10066c00137edbb2927d52b2002a13db514a137e09
:10067c00dbb2927dd20702d5db0700d582e04d4a72
:10068c00137edbb2927d520701d55b074bd404bcc1
:10069c009046f0bd5bb2002be8da464b5b8b072231
:1006ac001340e3d0444ce38501f032fa414b8422f1
:1006bc001a752c230022e254636a002bd6d03e4ad2
:1006cc00906a9847d2e7bb68f35c0b85936801335b
:1006dc009360936898460b7e23420bd0404509d912
:1006ec004b682b40012beed163469b685b009b5bf8
:1006fc000b85ebe7304b9a685b689a42bfd32e4b65
:10070c0000221a755a602b4a01211175db68002be7
:10071c00b5d0294a10699847b1e727490a6a89690f
:10072c005200535215e0244a2c23d35c002baed03c
:10073c00214b1a6adb699a42a9d21e4a138d9bb2cd
:10074c00516807220a40012ae7d01b4a116a9269b4
:10075c005354194b1a6a01321a621a6adb699a42ab
:10076c0000d094e7144b00222c215a54da61114a20
:10077c00583111755b6a002b00d188e70e4a906adc
:10078c00984784e70c4b1b7d002b00d177e70a4b75
:10079c009a685868074b1b7edb07abd58242a9d2ff
:1007ac00054b1e68034907259c461f001a000124af
:0c07bc0096e7c046001400420411002023
:020000040000fa
:1007c800f0b5de4657464e464546e0b583b001f0e3
:1007d800a9fa4c4b1a68013a1a601b680024002bce
:1007e80003d1494b1b68002b0fd101f0e1fa20001f
:1007f80003b03cbc90469946a246ab46f0bd3b6a66
:1008080063601fe0fb686b602ae000273f48060032
:1008180000213f4b9b4601933e4a3f4b99463f4b35
:1008280098460368002b4dd0f368df68bc6afb6903
:100838003d6a9d603b6afd695d603b0018336568f1
:100848009d42dcd0b9622368013b23607d69bc68a6
:10085800fb68a360bc685c603c1d6b68a342d1d098
:1008680079612b68013b2b60fd6a5b461b689d42e2
:1008780001d9019b1d60ab005b199b00d3185b6815
:10088800bb609d68fd606c609c60fb6a9c00e5181d
:10089800ad00aa46924455467d61e518ad00ad58b5
:1008a800aa460125ac46e244e3189b0054469c50f6
:1008b8004b461b68db6afc6a9c42b2d30123444660
:1008c8002360aee7002f01d001f00ef9144b1c682d
:1008d800002c0ed0114e012502e0013c002c05d061
:1008e800fff7f0fd0028f8d03560f6e70c4b002242
:1008f8001a600a4b1c68002c00d176e701f006fa52
:10090800012472e7dc110020d411002078110020a6
:10091800e411002000100020c8110020001200205f
:04092800f4110020a6
:020000040000fa
:10092c00f8b504000a00474b187dc0b22c215b5c63
:10093c00dbb2002b00d080e0002800d07fe0002c40
:10094c007cd02368002b79d0002a00d13e4a1901b3
:10095c00914238d8190b1805002300f0b7ff8023fb
:10096c005b02181a0021394a13680225ab43136045
:10097c00d369002bfcd180b2344b98816368022b75
:10098c004bd0324a13683248034049031943802341
:10099c005b04194311605168a368e06803432d4858
:1009ac0001400b4361680b435360284ad369002b09
:1009bc00fcd1264a136802210b431360d369002b28
:1009cc00fcd101203ae0d900914209d8590bd80446
:1009dc00002300f07bff80235b02181a0221c2e780
:1009ec005900c918914215d800271e00180039006b
:1009fc008019794180197941050c0b0406043000eb
:100a0c001d432900002300f061ff80235b02181aac
:100a1c000421a8e700210020a5e70c4a13680c4824
:100a2c0003404903194311605168a368e06803430c
:100a3c00472081430b435360b7e70020f8bd1800f3
:100a4c00fce7c04604110020006cdc0200140042dc
:080a5c00ff1ffff0b8dffffff0
:020000040000fa
:100a6400f0b5d646474680b585b0040000910192a2
:100a74001f00002544260023984632e03a000099de
:100a8400200000f00ffc636a002b09d1002810d16c
:100a940001f090f9012005b00cbc90469a46f0bdd7
:100aa4002000243000f0d2f80028f1d001f030f911
:100ab400eee701f02df9ebe701f07cf90020eae71d
:100ac40002a801f019f919e04346a35520e0452393
:100ad4004246e25421e0200000f0e4fafff772feff
:100ae400012501f021f9a36be26b9342c6d3022fd7
:100af400c4d0019b002bdfd0002de1d001f05af9c6
:100b040001f074f901f010f9a35d5bb20133dbd09d
:100b14004523e35c5bb20133d9d001f04bf901a961
:100b240002a800f0cffc002817d101f0fdf8a36b58
:100b34009a46e56b01f03ef9aa45ccd1200010306d
:100b4400019901f0b1f8200000f0acfafff73afe89
:100b54000028c5d101f0dcf8c2e7200000f0a2fab9
:080b6400fff730fe002096e7c8
:020000040000fa
:100b6c00f0b5060085b00f0015001c008b4265d84f
:100b7c0001d1824262d82100280001f0f5f8390039
:100b8c000090300001f0f0f8009b21001b1a1a00b5
:100b9c002800039301f0dcf800900191019bbb420b
:100bac0046d802d1009bb34242d8009b019c039ac9
:100bbc0001200021f61aa74101f0caf8039b002b73
:100bcc002fd0019b009adb0754081c43019b5d0846
:100bdc00039b9c46bd422ed801d1b4422bd8320087
:100bec003b00121bab41012692185b410027b61843
:100bfc005f4101235b429c446346002bead1801980
:100c0c007941039a04000d003000390001f094f88a
:100c1c00039a06000f0001f09bf8241a8d41200066
:100c2c0029000a9b002b01d01e605f6005b0f0bd4f
:100c3c0000200021c2e7b6197f41dae7002000212d
:020c4c00efe7d0
:020000040000fa
:020c4e007047ed
:020000040000fa
:100c500010b5c368db689a6ad869196a8160d86977
:100c60004860180018305168814242d000219962d2
:100c7000116801391160284a1268002a3fd15a6967
:100c80009868d9688160986848601c1d5168a142c5
:100c900032d000215961116801391160d96a1f4aa7
:100ca0001268914201d91d4a11601d488a005218ec
:100cb0009200821852689a609168d9604c60946082
:100cc000dc6aa200111989004118596111198900c3
:100cd00009580131121992001150124a1168da6a4a
:100ce000cb6a00209a4203d90f4b01221a600130cf
:100cf00010bd196a5160b9e7d9685160c9e70b4a5c
:100d00005168d9618c681c62606088609a62116861
:100d100001311160e1e7c046dc110020e411002040
:100d200000100020c81100200012002078110020bf
:020000040000fa
:100d300010b500284ed1324b1b78002b4dd13048d6
:100d4000012202700b6803618b6843614b6883600a
:100d500000234360c361036243700283cb68c363b3
:100d60000b6903644b6943648b698364cb69c36417
:100d7000283000f0a9ff002832d021482c3000f0a4
:100d8000a3ff00282fd01e48303000f09dff002820
:100d90002cd01b48002300220021343000f01dfc21
:100da000002826d01648002300220021383000f009
:100db00014fc002820d0124c23695b6921001148e3
:100dc000984723691b6821000f4898470223237323
:100dd000002004e00120404201e00120404210bd1b
:100de00001204042fbe701204042f8e70120404259
:100df000f5e701204042f2e701204042efe7c0461c
:0c0e000064100020011e00008d16000090
:020000040000fa
:100e0c0010b52a4b1b68002b03d0294b01221a600a
:100e1c0010bd274b00221a60264b1b681b6b264a01
:100e2c001968914202d1596891422fd0214b186810
:100e3c001968343101f070f8204b1b689a00d218f5
:100e4c0092001f495258002a06d1013b9a00d21831
:100e5c0092005258002af8d019489a00d1188900eb
:100e6c0041184c6864684c60d218920008328218a1
:100e7c00944212d09a00d218920011498a185268e2
:100e8c00d1680c4a11600d4a1360c1e79968914210
:100e9c00ccd1db689342c9d1cee760689a00d218f6
:100eac00920007498a185060e4e7c046dc11002024
:100ebc0000120020c8110020a5a5a5a5e411002052
:040ecc0000100020f2
:020000040000fa
:100ed000f8b504000d00002851d0c36b0020002b92
:100ee0004ed00021266c370c1a0cb8b200282ed137
:100ef00090b200281ed10020002941d100f016ff39
:100f00002268216ce36b4b43d018a0600020a063e3
:100f100062605b1ad318e360ff234422a3540132ba
:100f2000a354002d22d12369002b16d100f044ffd9
:100f3000012025e0301cb6b29bb2734380b292b25e
:100f400042431b0cd3181b0cd5d00121d3e792b21e
:100f5000002afad13a1c181cede720001030fff7e8
:100f600077fe0028e2d000f0d5fedfe72000103049
:100f700000f00cff2000243000f008ffd6e700202e
:020f8000f8bdba
:020000040000fa
:020f8200fee788
:020000040000fa
:100f840070b504000d001d4b1e681d4b186804301d
:100f940000f000fe631c0dd03419194b1b685c6013
:100fa400a6421dd9174b1868154b1968043100f077
:100fb40059fd70bd002defd0134a5168104b1868cd
:100fc400816018688c68c4601868043060601868b0
:100fd400043088601b685a61136801331360e8e7c2
:100fe4000a4b1868064b1968043100f03bfd084ba6
:100ff4001b68a342ddd9064b1c60dae7fc11002014
:10100400c8110020d01100208c110020cc11002028
:04101400ec110020bb
:020000040000fa
:1010180070b50400430707d0072302009a43130062
:101028000833834227d91c0000f0defe184b1b68ea
:10103800002b0dd0002c24d0164b1b681c19164a07
:1010480094420bd8a3420cd3fff7bafb1be0002451
:101058000f4a124b07218b431360ebe7fff7b0fbf6
:1010680011e00b4a1568ed180a4b1c60fff7a8fb46
:10107800002d0bd107e000f0b7fe054b1b68002bd5
:10108800e5d0fff79dfb00f04bff0025280070bd61
:101098000412002008120020f70f000007000020ab
:020000040000fa
:1010a80070b5050000f03efe4523ec5c64b2002cf0
:1010b80004dd6b6a2e002436002b1fd14523ff2246
:1010c800ea5400f075fe00f02dfe4423ec5c64b297
:1010d800002c04dd2b692e001036002b1dd1442373
:1010e800ff22ea5400f064fe70bd00f0d5fe013c1a
:1010f80064b2002ce2d06b6a002bdfd03000fff71f
:10110800a3fd0028f3d0f0e700f0c6fe013c64b26e
:10111800002ce4d02b69002be1d03000fff794fdc0
:061128000028f3d0f0e7ff
:020000040000fa
:02112e00fee7da
:020000040000fa
:1011300070b5041e33d0836c013b8364c26a416c7a
:101140008a422ed00020002b00d070bd251d280023
:1011500000f022fd626ce26205239b1aa361124b30
:101160001b689a4201d9104b1a60104993009b18d2
:101170009b00cb185b68a3609a68e26055609d6035
:10118000e06a83001a1892008a1862611a189200a5
:10119000525801321b189b005a500120d5e70020fd
:1011a000d3e70020d1e7c046e41100200010002062
:020000040000fa
:1011b00070b505000e00002834d00020090c2b0c5f
:1011c0008ab2002a29d19ab2002a18d100282cd13b
:1011d0003000684300240300493324d84830fff727
:1011e0001bff041e1fd00300002e00d048332360d5
:1011f000e563266401212000fff76afe13e0191c55
:10120000341cb3b2aab25a43a4b28bb26343120cd9
:101210009b181b0cdad00120d8e79bb2002bfad127
:0e1220002c1ceee70024200070bd0024fbe72c
:020000040000fa
:02122e00fee7d9
:020000040000fa
:10123000174b5a6852031b68db0c13439b029b0a33
:10124000144a936300235375110004228b691a42d8
:10125000fcd110491022cb681a42fcd00e4b002260
:101260009a611a610d4b0e4a1a62190004224b68ea
:101270001a42fcd1094adc234021d15010009c3194
:10128000402243581a42fcd0064b2022da617047b4
:10129000206080000010004000140040001c00404e
:0812a0000601010000080040f6
:020000040000fa
:1012a80070b504001600856b026c002a0cd1002072
:1012b8002368002b02d00135a56370bda068fff735
:1012c80033ff0023a360f6e7002e0ed1406800f03c
:1012d80082fd6368226c9446634463603000a268b0
:1012e8009342e8d323686360e5e7c06800f073fdc4
:1012f800236c5a42e3689b18e36021688b4203d24f
:10130800a3689c466244e2600020022ed3d1002ddf
:06131800d1d0013dcfe73a
:020000040000fa
:02131e00704716
:020000040000fa
:1013200070b500282fd0194b1a7d0023002a26d132
:10133000164b1860596001321a75154b1b7edb077e
:1013400016d500291dd00023114c0726012507e0e2
:10135000c25c22850133227e2a420ad0994208d9f2
:1013600062683240012af3d15a00825a2285f1e79d
:101370000023064a9360064b01229a750123180048
:1013800070bd0b00f5e70023f9e7c046041100200b
:041390000014004203
:020000040000fa
:101394000021f0b5174b184a934208d30027174a87
:1013a40013685168002b05d1002903d1f0bd1970d1
:1013b4000133f1e7100095680c305c18002d16d04d
:1013c4000b25ed1a5219a3420ad10b000322134034
:1013d4005a1e934189085918890040180200dfe712
:1013e4005d1cae5c1e702b00ede71f700133a34241
:1013f400fbd1f3e70000002000000020ec02000015
:020000040000fa
:10140400f0b5c64600b5144b9846144f144e1d0053
:1014140043461b68002b17d000f086fcfb68dc6891
:10142400201d00f0b7fb3368013b33602b68013ba0
:101434002b6000f0bffc206b00f02bfb200000f0c1
:1014440028fb2b68002be7d1064b1b68012bdfd947
:1014540000f05efcdce7c046d8110020a01100209b
:08146400d4110020001000204b
:020000040000fa
:10146c0000b583b00e4b01930023009380220d49ed
:10147c000d48fef731fe012803d00c4b1b6803b05e
:10148c0000bd72b60a4b012252421a60094b02325d
:10149c001a60094b00221a6000f038faede7c046da
:1014ac00e811002048180000051400002412002048
:0c14bc00ec110020f8110020fc110020b1
:020000040000fa
:1014c80070b505000c0000f02dfc124b1a6823685b
:1014d800591c1ad06968104800682e68864205d0e1
:1014e800914203d80023236001240fe0501a83425d
:1014f80003d800232360012408e09b1a5b182360ab
:10150800280000f0f7fb002400e0002400f050fc65
:0c151800200070bdfc110020f01100202c
:020000040000fa
:1015240000230e4a10b513600d4a13600d4a136070
:101534000d4a13600d4a13600d4a5362136101335f
:10154400936000f02cfc00f02afc0a4c0a4b9c42ed
:1015540000d310bd08cc9847f8e7c0461812002005
:10156400c0100020bc100020b4100020b8100020cf
:0c157400c4100020c8000000cc000000e3
:020000040000fa
:10158000f8b504000e0000f01ffa0500a26b00275a
:10159000e36b93420bd94523e35c5bb20132a26358
:1015a0005a1c09d001335bb24522a35401272800fd
:1015b00000f0b5fc3800f8bd636a0137002bf6d0a7
:1015c00020002430fff744fb0028f0d0002e02d08a
:0a15d00001233360ebe70127e9e790
:020000040000fa
:1015da0070b504001d00002906d001291bd0002384
:1015ea000360012040421fe00020012b1cd8032287
:1015fa0000210130fff7d7fd2060002810d0012d0f
:10160a000ed1002300220021fff727fa01384342b6
:10161a00584140b208e01900100000f0cbfa2060ef
:0a162a002068431e984140b270bdd5
:020000040000fa
:10163400114b124a1a60124a9a81c02292025a60cd
:101644001a00d369002bfcd10b4a136802210b4307
:101654001360d369002bfcd10a4b00229a61da6132
:101664001a622c215a545a621a605a609a601a7586
:10167400da60da857047c046001400420401314044
:081684002bf6ffff041100200a
:020000040000fa
:10168c0070b50400c56903695b6a9847002808d1e6
:10169c0000236b712522a3542000383000f0acf9e4
:1016ac0070bda36c1a6890420fd05a6890420ad051
:1016bc009a680023904204d06b7125230122e254d6
:1016cc00eae7023302e0012300e000230133f3e7f1
:020000040000fa
:1016dc0030b583b00c4c0d4b0193012500950023c4
:1016ec00802221000a48fef7f7fc802221001031ed
:1016fc00084b01930095002352000748fef7ecfcc1
:10170c00fff7aefe03b030bd8c1c00000c120020a5
:0c171c00011f000010120020091f000037
:020000040000fa
:1017280010b5064c2378002b07d1054b002b02d0af
:10173800044800e000bf0123237010bd34110020cd
:101748000000000000000000044b10b5002b03d07f
:101758000349044800e000bf10bdc0460000000077
:08176800381100200000000010
:020000040000fa
:1017700010b50e4b06225a6000f00af9fff758fd2b
:1017800000f076fbfff763fa00f084fbfff752ffef
:1017900007490020fff7ccfa064b186000f086fbe3
:1017a00000f0a8fb00f08ef910bdc04600400041db
:0817b0002c1c0000c4110020f4
:020000040000fa
:1017b80010b50a4b98470a4b984700f0a5fb094b10
:1017c800ff229343084a9360084b9847084b984771
:1017d800084b984700f040fbfee7c0461f13000087
:1017e8001f1300000000000000ed00e025150000b8
:0817f8001f1300001f13000085
:020000040000fa
:1018000010b584b06a460e4b13cb13c21b881380ed
:101810000c4b1b78002b03d0012b05d004b010bd5e
:10182000084b01221a70f9e70e216846fff778fd90
:1018300000f0f6fa0028fbd0322000f007faede7be
:08184000401e00001c120020f4
:020000040000fa
:0818480049444c450000c04674
:020000040000fa
:10185000eff309800e4b1a6820381060f0c0444640
:101860004d4656465f46f0c008b572b6fff7cefa51
:1018700062b60cbc116808681030f0c8a046a946d2
:10188000b246bb4680f309882038f0c81847c046e6
:04189000c81100205b
:020000040000fa
:1018940070b504000d00002815d00c4a2c23d35c2d
:1018a4000020002b00d070bd00f036f9074b9c617e
:1018b400dd6100221a622c2101205854da85044b80
:1018c40084329a75efe70020ede7c046041100204a
:0418d40000140042ba
:020000040000fa
:1018d800002b11d1002a0fd1002900d1002802d0f5
:1018e8000021c943081c07b4024802a1401802900d
:1018f80003bdc0463106000003b4684601b502982e
:10190800fff730f9019b9e4602b00cbc7047c046f9
:020000040000fa
:1019180010b50c4b1968ff2212040a431a601968a3
:10192800ff2212060a431a6000f00af9064b002249
:101938001a6000f049f8fff765fa00f043fa002052
:0c19480010bdc04620ed00e02812002079
:020000040000fa
:101954001c2101231b04984201d3000c10391b0adb
:10196400984201d3000a08391b09984201d300099f
:10197400043902a2105c40187047c04604030202f6
:0c19840001010101000000000000000053
:020000040000fa
:101990008223db05802212021a600a4a1a610022a1
:1019a0004f215a540d310620585425395a540731c5
:1019b0005a5401328c315a5401315a54b432983944
:0819c0009954704700800010eb
:020000040000fa
:0819c800eff3108072b67047c6
:020000040000fa
:1019d0000b4a13681868203080f30988022080f3ce
:1019e0001488bff36f8f3fbcae4608bc04bc62b620
:1019f0001847c046c046c046c046c046c046c0465e
:041a0000c8110020e9
:020000040000fa
:101a040000b583b000230193006801a9fff7b6fd78
:101a14000023002802d1180003b000bd0133019a4d
:101a2400002af8d0024b802252051a600123f2e703
:041a340004ed00e0dd
:020000040000fa
:101a380010b50a4b1b78002b02d0012b04d010bd27
:101a4800064b01221a70fae78223db058022120274
:101a5800da61642000f0f6f8f1e7c04620120020b1
:020000040000fa
:101a680030b50c6802000832631c02d1026904e038
:101a78001a0053681d68a542fad953684b609960eb
:0e1a88008a605160086103680133036030bd5d
:020000040000fa
:021a9600704797
:020000040000fa
:101a9800e91e000095180000311e0000dd1e000040
:101aa800711b0000d11e000021130000b91e0000a8
:0c1ab800c51e0000111e00002d090000da
:020000040000fa
:101ac400bff35f8f62b6074bc32080001a580649e4
:101ad4001140c02212020a431a50802292011a6055
:0c1ae4007047c04600e100e0ff00ffff7b
:020000040000fa
:101af000084b1b681b68002b04d1074b0122524284
:101b00001a607047034b1b68db681a68024b1a6047
:0c1b1000f7e7c046cc110020ec110020cb
:020000040000fa
:101b1c00094b5b8b5b070dd0074b80221a76793a09
:101b2c005a831b7e5b0705d5034b04211a8d1a7e45
:0c1b3c000a42fbd17047c0460014004272
:020000040000fa
:101b4800054b00221a6005490a60054a05491160db
:101b580007221a607047c04610e000e018e000e075
:081b680014e000e07fbb000067
:020000040000fa
:101b7000074a2c23d35c002b08d0064b84221a750d
:101b8000034b00222c215a54da611a62012070475b
:081b90000411002000140042c2
:020000040000fa
:101b98000369416882688a60416851605a68824274
:101ba80006d0002202611a68013a1a601868704764
:061bb80082685a60f5e7a7
:020000040000fa
:101bbe0010b503000c0000280bd000208b4209d377
:101bce00022200211800fff7ecfa002802d08463ed
:061bde0000e0002010bd34
:020000040000fa
:101be40010b5020000210120fff7e0fa041e07d01f
:101bf400002383600360c36000220021fef730ffee
:041c0400200010bdef
:020000040000fa
:101c080010b5fff7ddfe0400fef75cfc002803d0ea
:101c1800034b802252051a60200000f07cf910bda9
:041c280004ed00e0e7
:020000040000fa
:101c2c00981a000001000000b4110020a41d00004f
:101c3c00e41c0000881e00007c1e00000300000055
:020000040000fa
:101c4c0010b5041e09d000f0cdf800212000fff7dc
:101c5c0093f9fef7b3fd002801d100f055f810bd43
:020000040000fa
:101c6c0010b5031f802464041c60043b1960043b02
:101c7c0002491960143b1a60403810bdcd1d00009c
:020000040000fa
:101c8c004150505f424c494e4b5f5461736b730033
:101c9c004150505f5052494e545f5461736b730006
:020000040000fa
:101cac0010b50c00044b19681831fff7d7fe012151
:0c1cbc002000fff761f910bdc8110020e6
:020000040000fa
:101cc80010b5040000202368002b00d010bd01309f
:0a1cd800fff784ff20600120f8e709
:020000040000fa
:021ce200704749
:020000040000fa
:101ce400020000000000000000000800ffffffffea
:081cf400fffffffffffffffff0
:020000040000fa
:101cfc00034b1b680360034b1b6843607047c04673
:081d0c00f0110020fc11002081
:020000040000fa
:101d1400044b802252051a60bff34f8fbff36f8fbd
:081d24007047c04604ed00e029
:020000040000fa
:101d2c0072b6044a136801331360bff34f8fbff3cd
:081d3c006f8f70472812002090
:020000040000fa
:101d4400d0400b1cd1409c46203ad3401843524209
:101d540063469340184370479140031c90409c464f
:101d6400203a9340194352426346d3401943704783
:101d740010b5002903d1fff7ebfd203002e0081c69
:081d8400fff7e6fd10bdc046ab
:020000040000fa
:101d8c00030008334360012252428260c360036146
:061d9c0000230360704704
:020000040000fa
:021da200704788
:020000040000fa
:101da400050000000600000007000000000000001d
:041db400010000002a
:020000040000fa
:101db800034a1368013b1360002b00d162b67047d9
:041dc80028120020bd
:020000040000fa
:101dcc0082b00023019372b6019b002bfcd002b0b1
:021ddc0070474e
:020000040000fa
:101dde00002310b59a4200d110bdcc5cc45401331f
:021dee00f8e714
:020000040000fa
:101df000024a1368013313607047c046dc110020ab
:020000040000fa
:101e000010b524230022c2543430fff7fbfd10bd6f
:020000040000fa
:101e1000024bd88d80b20022da8570470411002071
:020000040000fa
:101e2000024b187e8007c00f7047c0460014004266
:020000040000fa
:101e3000024a2c23d05cc0b27047c0460411002077
:020000040000fa
:101e400048656c6c6f20576f726c640a0d00c04659
:020000040000fa
:101e500003001218934200d1704719700133f9e75b
:020000040000fa
:0e1e600010b50020fff784fcfff738fcfce70c
:020000040000fa
:0c1e7000014b84225a6070470040004182
:020000040000fa
:0c1e7c0004000000000000000200000054
:020000040000fa
:0c1e880000000000ffffffff4000000012
:020000040000fa
:0c1e94008223db05802212029a61704755
:020000040000fa
:0c1ea000014b01221a6070470012002064
:020000040000fa
:0c1eac00014b00221a7070472012002029
:020000040000fa
:0c1eb800014b187dc0b2704704110020df
:020000040000fa
:0c1ec400014b98687047c04604110020d4
:020000040000fa
:0c1ed000014bd86019617047041100201c
:020000040000fa
:0c1edc00014b186a7047c046041100203a
:020000040000fa
:0c1ee800014b5862996270470411002001
:020000040000fa
:0c1ef400014b00221a7070471c120020e5
:020000040000fa
:081f000010b5fff799fdfce7a5
:020000040000fa
:081f080010b5fff779fcfce7be
:020000040000fa
:081f100010b5fff73ffa10bd08
:020000040000fa
:061f180000230361704785
:020000040000fa
:061f1e0080f310887047fb
:020000040000fa
:041f240072b6fee7ac
:020000040000fa
:041f280072b6fee7a8
:020000040000fa
:041f2c007047c046f4
:020000040000fa
:0200000400807a
:04400000770800003d
:020000040000fa
:0200000400807a
:044004000000ffffba
:00000001FF
