:020000040000fa
:10000000f07f0020a1190000ab120000f31c0000db
:1000100000000000000000000000000000000000e0
:10002000000000000000000000000000f71f0000ba
:100030000000000000000000811a0000411e0000c6
:10004000d30f0000d30f0000d30f0000d30f000028
:10005000d30f0000d30f0000d30f0000d30f000018
:10006000d30f0000d30f0000d30f0000d30f000008
:10007000d30f0000ad060000d30f0000d30f000027
:10008000d30f0000d30f0000d30f0000d30f0000e8
:10009000d30f0000d30f0000d30f0000d30f0000d8
:1000a000d30f0000d30f0000d30f0000d30f0000c8
:0c00b000d30f0000d30f0000d30f00009e
:020000040000fa
:1000bc00f8b5c046f8bc08bc9e46704781190000d4
:1000cc00f8b5c046f8bc08bc9e46704759190000ec
:020000040000fa
:0800dc00e00a00000100000031
:020000040000fa
:1000e4009c1100201c00000000000000cc10002027
:1000f40050000000000000006c11002030000000df
:100104000000000038120020100000000000000071
:100114005812002004000000000000005c120020bf
:100124000400000000000000601200200400000031
:100134000000000064120020040000000000000021
:10014400c41200200400000001000000aaaaaaaa08
:1001540068120020040000000000000000000020dd
:1001640000100000000000006c12002004000000d9
:1001740000000000701200200400000000000000d5
:100184007412002004000000000000007812002017
:10019400040000000000000068100020640000005b
:1001a400000000007c120020040000000000000099
:1001b40080120020040000000000000084120020cf
:1001c4000400000000000000881200200400000069
:1001d400000000008c120020040000000000000059
:1001e400d41100201400000000000000e8110020d9
:1001f4001400000000000000901200200400000021
:100204000000000094120020040000000000000020
:100214009812002004000000000000009c1200203e
:100224000400000000000000fc1100201400000085
:1002340000000000a01200200400000000000000e4
:1002440010120020140000000000000024120020fe
:100254001400000000000000a412002004000000ac
:1002640000000000a81200200400000000000000ac
:10027400c812002004000000010000000400000077
:10028400c01200200100000000000000bc12002089
:100294000100000000000000b81100201c00000054
:1002a40000000000001000206800000000000000b2
:1002b400b81200200100000000000000b912002064
:1002c4000100000000000000ac1200200400000047
:1002d4000000000048120020100000000000000090
:1002e400b012002004000000000000001c110020d7
:1002f4005000000000000000b412002004000000c0
:1003040000000000000000000000000044444444d9
:020000040000fa
:10031400f0b5de46474680b583b000900e000193e9
:100324009500280000f034ff071e00d1d2e05420cd
:1003340000f02eff041e60d007632a00a5213800b8
:1003440001f0aefe236b9846002e5cd03378342245
:10035400a354002b09d0012322003432f15cd15480
:10036400002902d00133102bf8d143230022e25498
:100374000a9b9b46042b01d904239b465b46e362fc
:1003840063640026a664271d380001f0f6fe2000f1
:10039400183001f0f2fe246105235a469b1aa3612a
:1003a400646223004c331e705e709e70de700433f2
:1003b4001e70281f404407239843019a009901f0b6
:1003c40071fd20600b9b002b00d01c6001f0befd72
:1003d400444a136801331360434b1b68002b16d047
:1003e400424b1b68002b17d13f4b1b68db6ae26a48
:1003f400934211d83c4b1c600ee0380001f05ffec4
:100404000120404268e034230022e254b0e7364b36
:100414001c601368012b33d0354a13680133136011
:10042400e26a344b1b689a4201d9324b1a60324952
:1004340093009b189b00cb185b68a3609a68e260ea
:1004440057609f60e06a83001a1892008a186261fc
:100454001a189200525801321b189b005a5001f08e
:10046400d3fd224b1b680120002b35d01e4b1b688b
:10047400da6ae36a9a422fd201f05cfd01202be094
:100484001d4d280001f0aafd2800143001f0a6fd3e
:100494002800283001f0a2fd28003c3001f09efd28
:1004a4002800503001f09afd144e300001f096fd02
:1004b400134d280001f092fd124801f08ffd1248ff
:1004c40001f08cfd114801f089fd114b1e60114ba8
:1004d4001d60a1e70120404203b00cbc90469b463e
:1004e400f0bdc0467c12002070120020a012002033
:1004f400881200208c12002068100020d4110020e3
:10050400e8110020fc110020241200201012002009
:0805140074120020781200208f
:020000040000fa
:10051c00f0b5d6464f464646c0b582b0554b1b6823
:10052c00002b00d098e0544b1c6801341c60002c4c
:10053c0019d0524b1b68a34222d900230193504b74
:10054c001b68da6a93009b189b004e4a9b58012b40
:10055c0001d9012301934c4b1b68002b00d181e086
:10056c00012301937ee0494a1168494b18681060d9
:10057c001960484a13680133136001f0f7fbd8e7a0
:10058c0000230193414eb24600239946424b9846b4
:10059c003c493b4b9c4637e0384b012252421a6097
:1005ac00cde7364b1a60cae7dd68556041e01d6a3d
:1005bc0055604d469d621568013d1560dd6a4246e9
:1005cc001268954201d9344a1560aa00521992005a
:1005dc008a1852689a609568dd6068609060dd6a80
:1005ec00aa00501980000818586150198000405812
:1005fc00013052199200505062461068da6ac36a90
:10060c009a4201d30123019333681b68002bc3d09a
:10061c0053461b68db68db685a689442c1d35a693d
:10062c009d68d868a8609d684560181d556885420e
:10063c00bad04d465d611568013d15609a6a002a75
:10064c00bcd01d6adf69bd60df696f601d001835a5
:10065c005768af42add1aae7104a13680133136053
:10066c0000230193019802b01cbc90469946a24607
:10067c00f0bdc04684120020a41200209412002069
:10068c007012002068100020a812002074120020a4
:10069c0078120020981200208c1200209c1200204e
:020000040000fa
:1006ac00f0b5c64600b5574b9b7d002b17d0554a6d
:1006bc00137edbb2927d52b2002a13db514a137eb9
:1006cc00dbb2927dd20702d5db0700d582e04d4a22
:1006dc00137edbb2927d520701d55b074bd404bc71
:1006ec009046f0bd5bb2002be8da464b5b8b0722e1
:1006fc001340e3d0444ce38501f00cfb414b8422c6
:10070c001a752c230022e254636a002bd6d03e4a81
:10071c00906a9847d2e7bb68f35c0b85936801330a
:10072c009360936898460b7e23420bd0404509d9c1
:10073c004b682b40012beed163469b685b009b5ba7
:10074c000b85ebe7304b9a685b689a42bfd32e4b14
:10075c0000221a755a602b4a01211175db68002b97
:10076c00b5d0294a10699847b1e727490a6a8969bf
:10077c005200535215e0244a2c23d35c002baed0ec
:10078c00214b1a6adb699a42a9d21e4a138d9bb27d
:10079c00516807220a40012ae7d01b4a116a926964
:1007ac005354194b1a6a01321a621a6adb699a425b
:1007bc0000d094e7144b00222c215a54da61114ad0
:1007cc00583111755b6a002b00d188e70e4a906a8c
:1007dc00984784e70c4b1b7d002b00d177e70a4b25
:1007ec009a685868074b1b7edb07abd58242a9d2af
:1007fc00054b1e68034907259c461f001a0001245f
:0c080c0096e7c046001400426c1100206a
:020000040000fa
:10081800f0b5de4657464e464546e0b583b001f092
:1008280093fb4c4b1a68013a1a601b680024002b92
:1008380003d1494b1b68002b0fd101f0e3fb2000cb
:1008480003b03cbc90469946a246ab46f0bd3b6a15
:1008580063601fe0fb686b602ae000273f480600e2
:1008680000213f4b9b4601933e4a3f4b99463f4be5
:1008780098460368002b4dd0f368df68bc6afb69b3
:100888003d6a9d603b6afd695d603b0018336568a1
:100898009d42dcd0b9622368013b23607d69bc6856
:1008a800fb68a360bc685c603c1d6b68a342d1d048
:1008b80079612b68013b2b60fd6a5b461b689d4292
:1008c80001d9019b1d60ab005b199b00d3185b68c5
:1008d800bb609d68fd606c609c60fb6a9c00e518cd
:1008e800ad00aa46924455467d61e518ad00ad5865
:1008f800aa460125ac46e244e3189b0054469c50a6
:100908004b461b68db6afc6a9c42b2d3012344460f
:100918002360aee7002f01d001f02afa144b1c68bf
:10092800002c0ed0114e012502e0013c002c05d010
:10093800fff7f0fd0028f8d03560f6e70c4b0022f1
:100948001a600a4b1c68002c00d176e701f0f0fa17
:10095800012472e7841200207c120020fc11002080
:100968008c1200206810002070120020a8120020ad
:040978009c120020ad
:020000040000fa
:10097c00f8b504000a00474b187dc0b22c215b5c13
:10098c00dbb2002b00d080e0002800d07fe0002cf0
:10099c007cd02368002b79d0002a00d13e4a190163
:1009ac00914238d8190b1805002301f0a5f88023c3
:1009bc005b02181a0021394a13680225ab431360f5
:1009cc00d369002bfcd180b2344b98816368022b25
:1009dc004bd0324a136832480340490319438023f1
:1009ec005b04194311605168a368e06803432d4808
:1009fc0001400b4361680b435360284ad369002bb9
:100a0c00fcd1264a136802210b431360d369002bd7
:100a1c00fcd101203ae0d900914209d8590bd804f5
:100a2c00002301f069f880235b02181a0221c2e747
:100a3c005900c918914215d800271e00180039001a
:100a4c008019794180197941050c0b04060430009a
:100a5c001d432900002301f04ff880235b02181a74
:100a6c000421a8e700210020a5e70c4a13680c48d4
:100a7c0003404903194311605168a368e0680343bc
:100a8c00472081430b435360b7e70020f8bd1800a3
:100a9c00fce7c0466c110020006cdc020014004224
:080aac00ff1ffff0b8dfffffa0
:020000040000fa
:100ab400f0b5d646474680b585b004000091019252
:100ac4001f00002544260023984632e03a0000998e
:100ad400200000f068fc636a002b09d1002810d1c3
:100ae40001f092fa012005b00cbc90469a46f0bd84
:100af4002000243000f0d2f80028f1d001f01afad6
:100b0400eee701f017faebe701f07efa0020eae7de
:100b140002a801f027fa19e04346a35520e0452333
:100b24004246e25421e0200000f07afbfff772fe17
:100b3400012501f00bfaa36be26b9342c6d3022f9b
:100b4400c4d0019b002bdfd0002de1d001f05cfa72
:100b540001f096fa01f0faf9a35d5bb20133dbd040
:100b64004523e35c5bb20133d9d001f04dfa01a90e
:100b740002a800f093fd002817d101f0e7f9a36b58
:100b84009a46e56b01f040faaa45ccd1200010301a
:100b9400019901f0a7f9200000f042fbfff73afeab
:100ba4000028c5d101f0c6f9c2e7200000f038fbe7
:080bb400fff730fe002096e778
:020000040000fa
:100bbc00f0b5060085b00f0015001c008b4265d8ff
:100bcc0001d1824262d82100280001f0f7f93900e6
:100bdc000090300001f0f2f9009b21001b1a1a0062
:100bec002800039301f0def900900191019bbb42b8
:100bfc0046d802d1009bb34242d8009b019c039a79
:100c0c0001200021f61aa74101f0ccf9039b002b1f
:100c1c002fd0019b009adb0754081c43019b5d08f5
:100c2c00039b9c46bd422ed801d1b4422bd8320036
:100c3c003b00121bab41012692185b410027b618f2
:100c4c005f4101235b429c446346002bead180192f
:100c5c007941039a04000d003000390001f096f937
:100c6c00039a06000f0001f09df9241a8d41200013
:100c7c0029000a9b002b01d01e605f6005b0f0bdff
:100c8c0000200021c2e7b6197f41dae700200021dd
:020c9c00efe780
:020000040000fa
:020c9e0070479d
:020000040000fa
:100ca00010b5c368db689a6ad869196a8160d86927
:100cb0004860180018305168814242d00021996282
:100cc000116801391160284a1268002a3fd15a6917
:100cd0009868d9688160986848601c1d5168a14275
:100ce00032d000215961116801391160d96a1f4a57
:100cf0001268914201d91d4a11601d488a0052189c
:100d00009200821852689a609168d9604c60946031
:100d1000dc6aa20011198900411859611119890072
:100d200009580131121992001150124a1168da6af9
:100d3000cb6a00209a4203d90f4b01221a6001307e
:100d400010bd196a5160b9e7d9685160c9e70b4a0b
:100d50005168d9618c681c62606088609a62116811
:100d600001311160e1e7c046841200208c1200209e
:100d70006810002070120020a8120020fc11002032
:020000040000fa
:100d800010b500284ed1324b1b78002b4dd1304886
:100d9000012202700b6803618b6843614b688360ba
:100da00000234360c361036243700283cb68c36363
:100db0000b6903644b6943648b698364cb69c364c7
:100dc000283001f09ff8002832d021482c3001f063
:100dd00099f800282fd01e48303001f093f80028f1
:100de0002cd01b48002300220021343000f0b4fc3a
:100df000002826d01648002300220021383000f0b9
:100e0000abfc002820d0124c23695b6921001148fb
:100e1000984723691b6821000f48984702232373d2
:100e2000002004e00120404201e00120404210bdca
:100e300001204042fbe701204042f8e70120404208
:100e4000f5e701204042f2e701204042efe7c046cb
:0c0e5000cc10002045200000b918000064
:020000040000fa
:100e5c0010b52a4b1b68002b03d0294b01221a60ba
:100e6c0010bd274b00221a60264b1b681b6b264ab1
:100e7c001968914202d1596891422fd0214b1868c0
:100e8c001968343100f0e4fe204b1b689a00d2182c
:100e9c0092001f495258002a06d1013b9a00d218e1
:100eac0092005258002af8d019489a00d11889009b
:100ebc0041184c6864684c60d21892000832821851
:100ecc00944212d09a00d218920011498a18526892
:100edc00d1680c4a11600d4a1360c1e799689142c0
:100eec00ccd1db689342c9d1cee760689a00d218a6
:100efc00920007498a185060e4e7c046841200202b
:100f0c00a812002070120020a5a5a5a58c12002007
:040f1c006810002039
:020000040000fa
:100f2000f8b504000d00002851d0c36b0020002b41
:100f30004ed00021266c370c1a0cb8b200282ed1e6
:100f400090b200281ed10020002941d101f000f804
:100f50002268216ce36b4b43d018a0600020a06393
:100f600062605b1ad318e360ff234422a35401326a
:100f7000a354002d22d12369002b16d101f046f88d
:100f8000012025e0301cb6b29bb2734380b292b20e
:100f900042431b0cd3181b0cd5d00121d3e792b2ce
:100fa000002afad13a1c181cede720001030fff798
:100fb00077fe0028e2d000f0bfffdfe7200010300e
:100fc00001f00ef82000243001f00af8d6e70020e6
:020fd000f8bd6a
:020000040000fa
:020fd200fee738
:020000040000fa
:100fd40010b504006822002101f062f81e4a9369ea
:100fe40001210b439361110001228b691a42fcd049
:100ff400194b9a6902210a439a6118490c6020042a
:10100400000c174a0243a0201a50220040324a60c2
:101014001204120c13480243b0201a50220050321a
:10102400ca601204120c802040040243c0201a50eb
:1010340060340c612404240c802252021443f022f4
:101044009c509a6901218a439a61190001228b6993
:101054001a42fcd110bdc046001c0042b811002049
:0810640000000480000001807f
:020000040000fa
:10106c001d4b5a6852031b68db0c13439b029b0af3
:10107c001a4a936300235375110004228b691a4298
:10108c00fcd116491022cb681a42fcd0144b00221a
:10109c009a611a61134b144a1a62190004224b68a4
:1010ac001a42fcd10f4adc234021d15010009c3154
:1010bc00402243581a42fcd00a4ae8234021d1501e
:1010cc001000a831402243581a42fcd0074b084a62
:1010dc001a612022da617047206080000010004005
:1010ec0000140040001c00400601010000080040f4
:0410fc00ff1d0000d4
:020000040000fa
:1011000070b504000d001d4b1e681d4b186804309f
:1011100000f070fe631c0dd03419194b1b685c6025
:10112000a6421dd9174b1868154b1968043100f0f9
:10113000c9fd70bd002defd0134a5168104b1868df
:10114000816018688c68c460186804306060186832
:10115000043088601b685a61136801331360e8e744
:101160000a4b1868064b1968043100f0abfd084bb8
:101170001b68a342ddd9064b1c60dae7a4120020ed
:10118000701200207812002010120020741200202b
:041190009412002095
:020000040000fa
:1011940070b50400430707d0072302009a431300e5
:1011a4000833834227d91c0000f06aff184b1b68e0
:1011b400002b0dd0002c24d0164b1b681c19164a8a
:1011c40094420bd8a3420cd3fff724fb1be000246a
:1011d4000f4a124b07218b431360ebe7fff71afb0f
:1011e40011e00b4a1568ed180a4b1c60fff712fb5f
:1011f400002d0bd107e000f043ff054b1b68002bcb
:10120400e5d0fff707fb00f0bbff0025280070bd09
:10121400681200206c120020f70f00000700002065
:020000040000fa
:1012240070b5050000f092fe4523ec5c64b2002c1e
:1012340004dd6b6a2e002436002b1fd14523ff22c8
:10124400ea5400f0e1fe00f081fe4423ec5c64b259
:10125400002c04dd2b692e001036002b1dd14423f5
:10126400ff22ea5400f0d0fe70bd00f059ff013cab
:1012740064b2002ce2d06b6a002bdfd03000fff7a1
:101284000dfd0028f3d0f0e700f04aff013c64b202
:10129400002ce4d02b69002be1d03000fff7fefcda
:0612a4000028f3d0f0e782
:020000040000fa
:0212aa00fee75d
:020000040000fa
:1012ac0070b5041e33d0836c013b8364c26a416cfd
:1012bc008a422ed00020002b00d070bd251d2800a6
:1012cc0000f092fd626ce26205239b1aa361124b43
:1012dc001b689a4201d9104b1a60104993009b1855
:1012ec009b00cb185b68a3609a68e26055609d60b8
:1012fc00e06a83001a1892008a1862611a18920028
:10130c00525801321b189b005a500120d5e700207f
:10131c00d3e70020d1e7c0468c12002068100020d3
:020000040000fa
:10132c0070b505000e00002834d00020090c2b0ce1
:10133c008ab2002a29d19ab2002a18d100282cd1bd
:10134c003000684300240300493324d84830fff7a9
:10135c001bff041e1fd00300002e00d04833236057
:10136c00e563266401212000fff7d4fd13e0191c6e
:10137c00341cb3b2aab25a43a4b28bb26343120c5c
:10138c009b181b0cdad00120d8e79bb2002bfad1aa
:0e139c002c1ceee70024200070bd0024fbe7af
:020000040000fa
:1013aa0070b504001600856b026c002a0cd100206f
:1013ba002368002b02d00135a56370bda068fff732
:1013ca0070ff0023a360f6e7002e0ed1406800f0fc
:1013da002bfe6368226c9446634463603000a26803
:1013ea009342e8d323686360e5e7c06800f01cfe17
:1013fa00236c5a42e3689b18e36021688b4203d24c
:10140a00a3689c466244e2600020022ed3d1002ddc
:06141a00d1d0013dcfe737
:020000040000fa
:1014200070b500282fd0194b1a7d0023002a26d131
:10143000164b1860596001321a75154b1b7edb077d
:1014400016d500291dd00023114c0726012507e0e1
:10145000c25c22850133227e2a420ad0994208d9f1
:1014600062683240012af3d15a00825a2285f1e79c
:101470000023064a9360064b01229a750123180047
:1014800070bd0b00f5e70023f9e7c0466c110020a2
:041490000014004202
:020000040000fa
:1014940010b5164b1b78002b02d0012b04d010bdc5
:1014a400124b01221a70fae7114900234b60114aca
:1014b4001160114a0a6008228a710b7201334b725f
:1014c40001338b720133cb7201330b7301334b73d2
:1014d40001338b730133cb73084b1a70012000f076
:1014e400effafa20400000f0edfcd8e7b812002033
:1014f40048120020ac120020aa55ff19b91200208e
:020000040000fa
:101504000021f0b5174b184a934208d30027174a15
:1015140013685168002b05d1002903d1f0bd19705f
:101524000133f1e7100095680c305c18002d16d0db
:101534000b25ed1a5219a3420ad10b0003221340c2
:101544005a1e934189085918890040180200dfe7a0
:101554005d1cae5c1e702b00ede71f700133a342cf
:10156400fbd1f3e70000002000000020e4000000ad
:020000040000fa
:1015740030b583b0114c124b019301250095002323
:10158400802221000f48fef7c3fe80222100103183
:101594000d4b01930095002352000c48fef7b8fe52
:1015a400210020310a4b0193009500238022094831
:1015b400fef7aefe00f044f803b030bd281c000076
:1015c4005c12002049210000641200205121000017
:0815d400601200205921000003
:020000040000fa
:1015dc00f0b5c64600b5144b9846144f144e1d007a
:1015ec0043461b68002b17d000f0acfcfb68dc6892
:1015fc00201d00f0f9fb3368013b33602b68013b85
:10160c002b6000f0fdfc206b00f055fd200000f07d
:10161c0052fd2b68002be7d1064b1b68012bdfd941
:10162c0000f084fcdce7c04680120020241200206d
:08163c007c1200206810002060
:020000040000fa
:1016440000b583b00e4b01930023009380220d4913
:101654000d48fef75dfe012803d00c4b1b6803b058
:1016640000bd72b60a4b012252421a60094b023283
:101674001a60094b00221a6000f062faede7c046d6
:101684009012002068210000dd150000c81200201f
:0c16940094120020a0120020a4120020dc
:020000040000fa
:1016a00070b505000c0000f053fc124b1a6823685b
:1016b000591c1ad06968104800682e68864205d007
:1016c000914203d80023236001240fe0501a834283
:1016d00003d800232360012408e09b1a5b182360d1
:1016e000280000f041fc002400e0002400f08efc03
:0c16f000200070bda41200209812002001
:020000040000fa
:1016fc0000230e4a10b513600d4a13600d4a136097
:10170c000d4a13600d4a13600d4a53621361013385
:10171c00936000f035fd00f033fd0a4c0a4b9c42ff
:10172c0000d310bd08cc9847f8e7c046b41200208f
:10173c0028110020241100201c1100202011002051
:0c174c002c110020c8000000cc000000a0
:020000040000fa
:1017580070b504001d00002906d001291bd0002304
:101768000360012040421fe00020012b1cd8032207
:1017780000210130fff7d6fd2060002810d0012d90
:101788000ed1002300220021fff790f901384342cf
:10179800584140b208e01900100000f03afb206000
:0a17a8002068431e984140b270bd56
:020000040000fa
:1017b200f8b504000e0000f0d2fc0500a26b002771
:1017c200e36b93420bd94523e35c5bb20132a26324
:1017d2005a1c09d001335bb24522a35401272800c9
:1017e20000f0c9fc3800f8bd636a0137002bf6d05f
:1017f20020002430fff753fa0028f0d0002e02d048
:0a18020001233360ebe70127e9e75b
:020000040000fa
:10180c00114b124a1a60124a9a81c02292025a60f3
:10181c001a00d369002bfcd10b4a136802210b432d
:10182c001360d369002bfcd10a4b00229a61da6158
:10183c001a622c215a545a621a605a609a601a75ac
:10184c00da60da857047c04600140042040131406a
:08185c002bf6ffff6c110020c8
:020000040000fa
:10186400114b01229a6119008b691a42fcd00e4b6c
:101874009a6902210a439a610c4ada61802226316c
:1018840099509a6927398a439a61190001228b6910
:101894001a42fcd1064b00221a605a609a60da6040
:1018a4001a615a619a617047001c0042003d0200af
:0418b400b811002047
:020000040000fa
:1018b80070b50400c56903695b6a9847002808d1b8
:1018c80000236b712522a3542000383000f08ef9d4
:1018d80070bda36c1a6890420fd05a6890420ad023
:1018e8009a680023904204d06b7125230122e254a8
:1018f800eae7023302e0012300e000230133f3e7c3
:020000040000fa
:1019080010b5104b06225a6000f054f9fff7aafbf5
:1019180000f0d4fbfff7bff9fff774ff00f0a6f85b
:10192800fff79cff08490020fff726fa074b1860cd
:1019380000f0fafb00f0fefb00f01efb00f0d6f909
:1019480010bdc04600400041881e0000581200200b
:020000040000fa
:1019580010b5064c2378002b07d1054b002b02d07d
:10196800044800e000bf0123237010bd9c11002033
:101978000000000000000000044b10b5002b03d04d
:101988000349044800e000bf10bdc0460000000045
:08199800a01100200000000076
:020000040000fa
:1019a00010b50a4b98470a4b984700f0e1fb094bea
:1019b000ff229343084a9360084b9847084b984787
:1019c000084b984700f076fbfee7c0461f1f00005b
:1019d0001f1f00000000000000ed00e0fd160000e9
:0819e0001f1f00001f1f000083
:020000040000fa
:1019e80010b584b06a460e4b13cb13c21b88138004
:1019f8000c4b1b78002b03d0012b05d004b010bd75
:101a0800084b01221a70f9e70e216846fff704fd1a
:101a180000f024fb0028fbd0322000f051faede75b
:081a280094200000bc12002014
:020000040000fa
:101a300070b504000d00002815d00c4a2c23d35c8f
:101a40000020002b00d070bd00f06af9074b9c61ac
:101a5000dd6100221a622c2101205854da85044be2
:101a600084329a75efe70020ede7c0466c11002044
:041a7000001400421c
:020000040000fa
:0c1a74008223db05802212029a61704779
:020000040000fa
:101a8000eff309800e4b1a6820381060f0c044460e
:101a90004d4656465f46f0c008b572b6fff7def910
:101aa00062b60cbc116808681030f0c8a046a946a0
:101ab000b246bb4680f309882038f0c81847c046b4
:041ac0007012002080
:020000040000fa
:101ac40070b50023012812d1002912d00a4dc43365
:101ad400ec58e402e40e2301084ad068c01810222e
:101ae40000f0a5fa0123a340d022ab500123180033
:101af40070bd0023fbe7c046001c0042b811002063
:020000040000fa
:101b0400002b11d1002a0fd1002900d1002802d0c6
:101b14000021c943081c07b4024802a140180290de
:101b240003bdc0466106000003b4684601b50298cf
:101b3400fff742f8019b9e4602b00cbc7047c046ba
:020000040000fa
:101b440010b50c4b1968ff2212040a431a60196875
:101b5400ff2212060a431a6000f036f9064b0022ef
:101b64001a6000f07bf8fff777f900f057fa0020cd
:0c1b740010bdc04620ed00e0c4120020af
:020000040000fa
:101b80001c2101231b04984201d3000c10391b0aad
:101b9000984201d3000a08391b09984201d3000971
:101ba000043902a2105c40187047c04604030202c8
:0c1bb00001010101000000000000000025
:020000040000fa
:101bbc008223db05802212021a600a4a1a61002273
:101bcc004f215a540d310620585425395a54073197
:101bdc005a5401328c315a5401315a54b432983916
:081bec009954704700800010bd
:020000040000fa
:101bf40000b583b000230193006801a9fff7d7fd66
:101c04000023002802d1180003b000bd0133019a5b
:101c1400002af8d0024b802252051a600123f2e711
:041c240004ed00e0eb
:020000040000fa
:101c28004150505f424c494e4b5f5461736b730097
:101c38004150505f5052494e545f5461736b73006a
:101c48004150505f43414e5f54585f5461736b730a
:041c58000000c04682
:020000040000fa
:041c5c0072b6fee777
:020000040000fa
:101c60000b4a13681868203080f30988022080f33b
:101c70001488bff36f8f3fbcae4608bc04bc62b68d
:101c80001847c046c046c046c046c046c046c046cb
:041c900070120020ae
:020000040000fa
:101c940010b50a4b1b78002b02d0012b04d010bdc9
:101ca400064b01221a70fae78223db058022120216
:101cb400da61642000f006f9f1e7c046c0120020a2
:020000040000fa
:101cc40030b50c6802000832631c02d1026904e0da
:101cd4001a0053681d68a542fad953684b6099608d
:0e1ce4008a605160086103680133036030bdff
:020000040000fa
:021cf200fee70b
:020000040000fa
:101cf400bff35f8f62b6074bc32080001a580649b2
:101d04001140c02212020a431a50802292011a6022
:0c1d14007047c04600e100e0ff00ffff48
:020000040000fa
:101d2000094b5b8b5b070dd0074b80221a76793a03
:101d30005a831b7e5b0705d5034b04211a8d1a7e3f
:0c1d40000a42fbd17047c046001400426c
:020000040000fa
:101d4c0001210000311a000075200000f520000070
:101d5c00a51d0000e920000021140000d120000086
:0c1d6c00dd200000552000007d09000073
:020000040000fa
:101d7800084b1b681b68002b04d1074b01225242f9
:101d88001a607047034b1b68db681a68024b1a60bd
:0c1d9800f7e7c0467412002094120020ef
:020000040000fa
:101da400074a2c23d35c002b08d0064b84221a75d7
:101db400034b00222c215a54da611a620120704725
:081dc4006c1100200014004224
:020000040000fa
:101dcc00054b00221a6005490a60054a0549116055
:101ddc0007221a607047c04610e000e018e000e0ef
:081dec0014e000e07fbb0000e1
:020000040000fa
:101df4000369416882688a60416851605a68824216
:101e040006d0002202611a68013a1a601868704705
:061e140082685a60f5e748
:020000040000fa
:101e1a0010b503000c0000280bd000208b4209d318
:101e2a00022200211800fff77cfa002802d08463fe
:061e3a0000e0002010bdd5
:020000040000fa
:101e400010b500f08df90400fef768fb002803d000
:101e5000034b802252051a60200000f08df910bd5e
:041e600004ed00e0ad
:020000040000fa
:101e640010b5020000210120fff75efa041e07d01e
:101e7400002383600360c36000220021fef718fe84
:041e8400200010bd6d
:020000040000fa
:101e88004c1d00000100000038120020f81f00005f
:101e9800201f0000182100000c2100000300000092
:020000040000fa
:101ea80010b5031f802464041c60043b1960043bc4
:101eb80002491960143b1a60403810bd2120000007
:020000040000fa
:101ec80010b5041e09d000f0d9f800212000fff752
:101ed80013f9fef79dfc002801d100f029f810bd88
:020000040000fa
:101ee80010b50c00044b19681831fff7e7fe012103
:0c1ef8002000fff701f910bd701200205f
:020000040000fa
:101f040010b5040000202368002b00d010bd013060
:0a1f1400fff7a6ff20600120f8e7a8
:020000040000fa
:021f1e0070470a
:020000040000fa
:101f2000020000000000000000000800ffffffffab
:081f3000ffffffffffffffffb1
:020000040000fa
:101f3800044b802252051a60bff34f8fbff36f8f97
:081f48007047c04604ed00e003
:020000040000fa
:101f500072b6044a136801331360bff34f8fbff3a7
:081f60006f8f7047c4120020ce
:020000040000fa
:101f6800034b1b680360034b1b6843607047c04604
:081f780098120020a4120020c1
:020000040000fa
:101f800010b5034b00221a700248fff723f810bd6a
:081f9000b8120020001000202f
:020000040000fa
:101f9800d0400b1cd1409c46203ad34018435242b3
:101fa80063469340184370479140031c90409c46f9
:101fb800203a9340194352426346d340194370472d
:101fc80010b5002903d1fff7d7fd203002e0081c27
:081fd800fff7d2fd10bdc04669
:020000040000fa
:101fe000030008334360012252428260c3600361f0
:061ff000002303607047ae
:020000040000fa
:021ff600704732
:020000040000fa
:101ff80005000000060000000700000000000000c7
:0420080001000000d3
:020000040000fa
:10200c00034a1368013b1360002b00d162b6704782
:04201c00c4120020ca
:020000040000fa
:1020200082b00023019372b6019b002bfcd002b05a
:022030007047f7
:020000040000fa
:10203200002310b59a4200d110bdcc5cc4540133c8
:02204200f8e7bd
:020000040000fa
:1020440010b524230022c2543430fff7d1fd10bd53
:020000040000fa
:10205400024bd88d80b20022da8570476c110020c3
:020000040000fa
:10206400024b187e8007c00f7047c0460014004220
:020000040000fa
:10207400024a2c23d05cc0b27047c0466c110020c9
:020000040000fa
:10208400024a1368013313607047c046841200206b
:020000040000fa
:1020940048656c6c6f20576f726c640a0d00c04603
:020000040000fa
:1020a40003001218934200d1704719700133f9e705
:020000040000fa
:0e20b40010b50020fff726fcfff75afafce7f4
:020000040000fa
:0220c200704765
:020000040000fa
:0c20c400014b84225a607047004000412c
:020000040000fa
:0c20d000014b187dc0b270476c1100205d
:020000040000fa
:0c20dc00014b98687047c0466c11002052
:020000040000fa
:0c20e800014bd860196170476c1100209a
:020000040000fa
:0c20f400014b186a7047c0466c110020b8
:020000040000fa
:0c210000014b5862996270476c1100207e
:020000040000fa
:0c210c00040000000000000002000000c1
:020000040000fa
:0c21180000000000ffffffff400000007f
:020000040000fa
:0c212400014b01221a607047a812002035
:020000040000fa
:0c213000014b00221a707047c012002002
:020000040000fa
:0c213c00014b00221a707047bc120020fa
:020000040000fa
:0821480010b5fff7a3fdfce751
:020000040000fa
:0821500010b5fff749fcfce7a4
:020000040000fa
:0821580010b5fff79bf9fce74d
:020000040000fa
:08216000eff3108072b6704726
:020000040000fa
:0821680049444c450000c0464b
:020000040000fa
:0821700010b5fff7c7f910bd1f
:020000040000fa
:0621780080f3108870479f
:020000040000fa
:06217e000023036170471d
:020000040000fa
:0421840072b6fee74a
:020000040000fa
:042188007047c04696
:020000040000fa
:02218c0070479a
:020000040000fa
:0200000400807a
:04400000770800003d
:020000040000fa
:0200000400807a
:044004000000ffffba
:00000001FF
